:0E0000000C9433000C9400000C9400000C943F
:10000E0000000C9400000C9400000C9400000C9462
:10001E0000000C9400000C9400000C9400000C9452
:10002E0000000C9400000C9400000C9400000C9442
:10003E0000000C9400000C9400000C9400000C9432
:10004E0000000C940000FC60DAF266B6BEE0FEF62C
:10005E000A00600254000000F894EE27ECBBF1E0B9
:10006E00F5BFE5BF8DE0A2E0BB27ED938A95E9F7DA
:10007E0080E098E0A0E6ED930197E9F7EEE5F0E079
:10008E0085919591009761F0A591B5910590159088
:10009E00BF01F00105900D920197E1F7FB01F0CF42
:1000AE00EFE5EDBFE8E0EEBFC0E6D2E00C94AA00AB
:1000BE00BA93AA9322970E940901A885B985E8EE02
:1000CE00F3E00E94060169D08F01A885B985EAE0A8
:1000DE00F0E00E94F30061D09F01A885B985E4E6A7
:1000EE00F0E00E94F300DF01EAE0F0E00E9406017A
:1000FE00AF01A885B985E8EEF3E00E94F300EE8328
:10010E00FF83E05AFD4FE081E5BBEEEF51D0A40F27
:10011E00B51FEC91E5BBEDEF4BD0A20FB31FEC91E9
:10012E00E5BBEBEF45D0A00FB11FEC91E5BBE7EFC0
:10013E00E2BBA1E0B0E00E94E900EFEFE2BB0E945B
:10014E0010012A96089500E010E020E030E051E022
:10015E00EFEFE4BBEFE0E1BBE2BB08E813E15030A8
:10016E0041F40F5F1F4F0F30E7E21E070CF051E016
:10017E0007C0015010400024001601060CF050E09C
:10018E0020E030E02B3FE0E03E072CF4D80190DF7A
:10019E002F5F3F4FF7CFE3CFFFCFDF01E4E6F0E075
:1001AE000E940601DF01EAE0F0E00E9406010895D8
:1001BE00E2BBA1E0B0E00E94E900EFEFE2BBA0E6F7
:1001CE00B2E00895109639F080ED97E00197F1F7BF
:1001DE00A8951197C9F708950024112490E1AA0F4C
:1001EE00BB1F001C111C0E1A1F0A18F40E0E1F1E28
:1001FE0001C0A1609A9599F7FD01D0010895ECDF39
:10020E00FD0108955A934A933A932A931A930A93A7
:10021E0008955D814C813B812A8119810881089561
:00000001FF
